:03000000000000FD
:03000100000001FB
:03000200000002F9
:03000300000003F7
:03000400000004F5
:03000500000005F3
:03000600000006F1
:03000700000007EF
:03000800000008ED
:03000900000009EB
:03000A0000000AE9
:03000B0000000BE7
:03000C0000000CE5
:03000D0000000DE3
:03000E0000000EE1
:03000F0000000FDF
:03001000000010DD
:03001100000011DB
:03001200000012D9
:03001300000013D7
:03001400000014D5
:03001500000015D3
:03001600000016D1
:03001700000017CF
:03001800000018CD
:03001900000019CB
:03001A0000001AC9
:03001B0000001BC7
:03001C0000001CC5
:03001D0000001DC3
:03001E0000001EC1
:03001F0000001FBF
:03002000000020BD
:03002100000021BB
:03002200000022B9
:03002300000023B7
:03002400000024B5
:03002500000025B3
:03002600000026B1
:03002700000027AF
:03002800000028AD
:03002900000029AB
:03002A0000002AA9
:03002B0000002BA7
:03002C0000002CA5
:03002D0000002DA3
:03002E0000002EA1
:03002F0000002F9F
:030030000000309D
:030031000000319B
:0300320000003299
:0300330000003397
:0300340000003495
:0300350000003593
:0300360000003691
:030037000000378F
:030038000000388D
:030039000000398B
:03003A0000003A89
:03003B0000003B87
:03003C0000003C85
:03003D0000003D83
:03003E0000003E81
:03003F0000003F7F
:030040000000407D
:030041000000417B
:0300420000004279
:0300430000004377
:0300440000004475
:0300450000004573
:0300460000004671
:030047000000476F
:030048000000486D
:030049000000496B
:03004A0000004A69
:03004B0000004B67
:03004C0000004C65
:03004D0000004D63
:03004E0000004E61
:03004F0000004F5F
:030050000000505D
:030051000000515B
:0300520000005259
:0300530000005357
:0300540000005455
:0300550000005553
:0300560000005651
:030057000000574F
:030058000000584D
:030059000000594B
:03005A0000005A49
:03005B0000005B47
:03005C0000005C45
:03005D0000005D43
:03005E0000005E41
:03005F0000005F3F
:030060000000603D
:030061000000613B
:0300620000006239
:0300630000006337
:0300640000006435
:0300650000006533
:0300660000006631
:030067000000672F
:030068000000682D
:030069000000692B
:03006A0000006A29
:03006B0000006B27
:03006C0000006C25
:03006D0000006D23
:03006E0000006E21
:03006F0000006F1F
:030070000000701D
:030071000000711B
:0300720000007219
:0300730000007317
:0300740000007415
:0300750000007513
:0300760000007611
:030077000000770F
:030078000000780D
:030079000000790B
:03007A0000007A09
:03007B0000007B07
:03007C0000007C05
:03007D0000007D03
:03007E0000007E01
:03007F0000007FFF
:03008000000080FD
:03008100000081FB
:03008200000082F9
:03008300000083F7
:03008400000084F5
:03008500000085F3
:03008600000086F1
:03008700000087EF
:03008800000088ED
:03008900000089EB
:03008A0000008AE9
:03008B0000008BE7
:03008C0000008CE5
:03008D0000008DE3
:03008E0000008EE1
:03008F0000008FDF
:03009000000090DD
:03009100000091DB
:03009200000092D9
:03009300000093D7
:03009400000094D5
:03009500000095D3
:03009600000096D1
:03009700000097CF
:03009800000098CD
:03009900000099CB
:03009A0000009AC9
:03009B0000009BC7
:03009C0000009CC5
:03009D0000009DC3
:03009E0000009EC1
:03009F0000009FBF
:0300A0000000A0BD
:0300A1000000A1BB
:0300A2000000A2B9
:0300A3000000A3B7
:0300A4000000A4B5
:0300A5000000A5B3
:0300A6000000A6B1
:0300A7000000A7AF
:0300A8000000A8AD
:0300A9000000A9AB
:0300AA000000AAA9
:0300AB000000ABA7
:0300AC000000ACA5
:0300AD000000ADA3
:0300AE000000AEA1
:0300AF000000AF9F
:0300B0000000B09D
:0300B1000000B19B
:0300B2000000B299
:0300B3000000B397
:0300B4000000B495
:0300B5000000B593
:0300B6000000B691
:0300B7000000B78F
:0300B8000000B88D
:0300B9000000B98B
:0300BA000000BA89
:0300BB000000BB87
:0300BC000000BC85
:0300BD000000BD83
:0300BE000000BE81
:0300BF000000BF7F
:0300C0000000C07D
:0300C1000000C17B
:0300C2000000C279
:0300C3000000C377
:0300C4000000C475
:0300C5000000C573
:0300C6000000C671
:0300C7000000C76F
:0300C8000000C86D
:0300C9000000C96B
:0300CA000000CA69
:0300CB000000CB67
:0300CC000000CC65
:0300CD000000CD63
:0300CE000000CE61
:0300CF000000CF5F
:0300D0000000D05D
:0300D1000000D15B
:0300D2000000D259
:0300D3000000D357
:0300D4000000D455
:0300D5000000D553
:0300D6000000D651
:0300D7000000D74F
:0300D8000000D84D
:0300D9000000D94B
:0300DA000000DA49
:0300DB000000DB47
:0300DC000000DC45
:0300DD000000DD43
:0300DE000000DE41
:0300DF000000DF3F
:0300E0000000E03D
:0300E1000000E13B
:0300E2000000E239
:0300E3000000E337
:0300E4000000E435
:0300E5000000E533
:0300E6000000E631
:0300E7000000E72F
:0300E8000000E82D
:0300E9000000E92B
:0300EA000000EA29
:0300EB000000EB27
:0300EC000000EC25
:0300ED000000ED23
:0300EE000000EE21
:0300EF000000EF1F
:0300F0000000F01D
:0300F1000000F11B
:0300F2000000F219
:0300F3000000F317
:0300F4000000F415
:0300F5000000F513
:0300F6000000F611
:0300F7000000F70F
:0300F8000000F80D
:0300F9000000F90B
:0300FA000000FA09
:0300FB000000FB07
:0300FC000000FC05
:0300FD000000FD03
:0300FE000000FE01
:0300FF000000FFFF
:03010000000100FB
:03010100000101F9
:03010200000102F7
:03010300000103F5
:03010400000104F3
:03010500000105F1
:03010600000106EF
:03010700000107ED
:03010800000108EB
:03010900000109E9
:03010A0000010AE7
:03010B0000010BE5
:03010C0000010CE3
:03010D0000010DE1
:03010E0000010EDF
:03010F0000010FDD
:03011000000110DB
:03011100000111D9
:03011200000112D7
:03011300000113D5
:03011400000114D3
:03011500000115D1
:03011600000116CF
:03011700000117CD
:03011800000118CB
:03011900000119C9
:03011A0000011AC7
:03011B0000011BC5
:03011C0000011CC3
:03011D0000011DC1
:03011E0000011EBF
:03011F0000011FBD
:03012000000120BB
:03012100000121B9
:03012200000122B7
:03012300000123B5
:03012400000124B3
:03012500000125B1
:03012600000126AF
:03012700000127AD
:03012800000128AB
:03012900000129A9
:03012A0000012AA7
:03012B0000012BA5
:03012C0000012CA3
:03012D0000012DA1
:03012E0000012E9F
:03012F0000012F9D
:030130000001309B
:0301310000013199
:0301320000013297
:0301330000013395
:0301340000013493
:0301350000013591
:030136000001368F
:030137000001378D
:030138000001388B
:0301390000013989
:03013A0000013A87
:03013B0000013B85
:03013C0000013C83
:03013D0000013D81
:03013E0000013E7F
:03013F0000013F7D
:030140000001407B
:0301410000014179
:0301420000014277
:0301430000014375
:0301440000014473
:0301450000014571
:030146000001466F
:030147000001476D
:030148000001486B
:0301490000014969
:03014A0000014A67
:03014B0000014B65
:03014C0000014C63
:03014D0000014D61
:03014E0000014E5F
:03014F0000014F5D
:030150000001505B
:0301510000015159
:0301520000015257
:0301530000015355
:0301540000015453
:0301550000015551
:030156000001564F
:030157000001574D
:030158000001584B
:0301590000015949
:03015A0000015A47
:03015B0000015B45
:03015C0000015C43
:03015D0000015D41
:03015E0000015E3F
:03015F0000015F3D
:030160000001603B
:0301610000016139
:0301620000016237
:0301630000016335
:0301640000016433
:0301650000016531
:030166000001662F
:030167000001672D
:030168000001682B
:0301690000016929
:03016A0000016A27
:03016B0000016B25
:03016C0000016C23
:03016D0000016D21
:03016E0000016E1F
:03016F0000016F1D
:030170000001701B
:0301710000017119
:0301720000017217
:0301730000017315
:0301740000017413
:0301750000017511
:030176000001760F
:030177000001770D
:030178000001780B
:0301790000017909
:03017A0000017A07
:03017B0000017B05
:03017C0000017C03
:03017D0000017D01
:03017E0000017EFF
:03017F0000017FFD
:03018000000180FB
:03018100000181F9
:03018200000182F7
:03018300000183F5
:03018400000184F3
:03018500000185F1
:03018600000186EF
:03018700000187ED
:03018800000188EB
:03018900000189E9
:03018A0000018AE7
:03018B0000018BE5
:03018C0000018CE3
:03018D0000018DE1
:03018E0000018EDF
:03018F0000018FDD
:03019000000190DB
:03019100000191D9
:03019200000192D7
:03019300000193D5
:03019400000194D3
:03019500000195D1
:03019600000196CF
:03019700000197CD
:03019800000198CB
:03019900000199C9
:03019A0000019AC7
:03019B0000019BC5
:03019C0000019CC3
:03019D0000019DC1
:03019E0000019EBF
:03019F0000019FBD
:0301A0000001A0BB
:0301A1000001A1B9
:0301A2000001A2B7
:0301A3000001A3B5
:0301A4000001A4B3
:0301A5000001A5B1
:0301A6000001A6AF
:0301A7000001A7AD
:0301A8000001A8AB
:0301A9000001A9A9
:0301AA000001AAA7
:0301AB000001ABA5
:0301AC000001ACA3
:0301AD000001ADA1
:0301AE000001AE9F
:0301AF000001AF9D
:0301B0000001B09B
:0301B1000001B199
:0301B2000001B297
:0301B3000001B395
:0301B4000001B493
:0301B5000001B591
:0301B6000001B68F
:0301B7000001B78D
:0301B8000001B88B
:0301B9000001B989
:0301BA000001BA87
:0301BB000001BB85
:0301BC000001BC83
:0301BD000001BD81
:0301BE000001BE7F
:0301BF000001BF7D
:0301C0000001C07B
:0301C1000001C179
:0301C2000001C277
:0301C3000001C375
:0301C4000001C473
:0301C5000001C571
:0301C6000001C66F
:0301C7000001C76D
:0301C8000001C86B
:0301C9000001C969
:0301CA000001CA67
:0301CB000001CB65
:0301CC000001CC63
:0301CD000001CD61
:0301CE000001CE5F
:0301CF000001CF5D
:0301D0000001D05B
:0301D1000001D159
:0301D2000001D257
:0301D3000001D355
:0301D4000001D453
:0301D5000001D551
:0301D6000001D64F
:0301D7000001D74D
:0301D8000001D84B
:0301D9000001D949
:0301DA000001DA47
:0301DB000001DB45
:0301DC000001DC43
:0301DD000001DD41
:0301DE000001DE3F
:0301DF000001DF3D
:0301E0000001E03B
:0301E1000001E139
:0301E2000001E237
:0301E3000001E335
:0301E4000001E433
:0301E5000001E531
:0301E6000001E62F
:0301E7000001E72D
:0301E8000001E82B
:0301E9000001E929
:0301EA000001EA27
:0301EB000001EB25
:0301EC000001EC23
:0301ED000001ED21
:0301EE000001EE1F
:0301EF000001EF1D
:0301F0000001F01B
:0301F1000001F119
:0301F2000001F217
:0301F3000001F315
:0301F4000001F413
:0301F5000001F511
:0301F6000001F60F
:0301F7000001F70D
:0301F8000001F80B
:0301F9000001F909
:0301FA000001FA07
:0301FB000001FB05
:0301FC000001FC03
:0301FD000001FD01
:0301FE000001FEFF
:0301FF000001FFFD
:03020000000200F9
:03020100000201F7
:03020200000202F5
:03020300000203F3
:03020400000204F1
:03020500000205EF
:03020600000206ED
:03020700000207EB
:03020800000208E9
:03020900000209E7
:03020A0000020AE5
:03020B0000020BE3
:03020C0000020CE1
:03020D0000020DDF
:03020E0000020EDD
:03020F0000020FDB
:03021000000210D9
:03021100000211D7
:03021200000212D5
:03021300000213D3
:03021400000214D1
:03021500000215CF
:03021600000216CD
:03021700000217CB
:03021800000218C9
:03021900000219C7
:03021A0000021AC5
:03021B0000021BC3
:03021C0000021CC1
:03021D0000021DBF
:03021E0000021EBD
:03021F0000021FBB
:03022000000220B9
:03022100000221B7
:03022200000222B5
:03022300000223B3
:03022400000224B1
:03022500000225AF
:03022600000226AD
:03022700000227AB
:03022800000228A9
:03022900000229A7
:03022A0000022AA5
:03022B0000022BA3
:03022C0000022CA1
:03022D0000022D9F
:03022E0000022E9D
:03022F0000022F9B
:0302300000023099
:0302310000023197
:0302320000023295
:0302330000023393
:0302340000023491
:030235000002358F
:030236000002368D
:030237000002378B
:0302380000023889
:0302390000023987
:03023A0000023A85
:03023B0000023B83
:03023C0000023C81
:03023D0000023D7F
:03023E0000023E7D
:03023F0000023F7B
:0302400000024079
:0302410000024177
:0302420000024275
:0302430000024373
:0302440000024471
:030245000002456F
:030246000002466D
:030247000002476B
:0302480000024869
:0302490000024967
:03024A0000024A65
:03024B0000024B63
:03024C0000024C61
:03024D0000024D5F
:03024E0000024E5D
:03024F0000024F5B
:0302500000025059
:0302510000025157
:0302520000025255
:0302530000025353
:0302540000025451
:030255000002554F
:030256000002564D
:030257000002574B
:0302580000025849
:0302590000025947
:03025A0000025A45
:03025B0000025B43
:03025C0000025C41
:03025D0000025D3F
:03025E0000025E3D
:03025F0000025F3B
:0302600000026039
:0302610000026137
:0302620000026235
:0302630000026333
:0302640000026431
:030265000002652F
:030266000002662D
:030267000002672B
:0302680000026829
:0302690000026927
:03026A0000026A25
:03026B0000026B23
:03026C0000026C21
:03026D0000026D1F
:03026E0000026E1D
:03026F0000026F1B
:0302700000027019
:0302710000027117
:0302720000027215
:0302730000027313
:0302740000027411
:030275000002750F
:030276000002760D
:030277000002770B
:0302780000027809
:0302790000027907
:03027A0000027A05
:03027B0000027B03
:03027C0000027C01
:03027D0000027DFF
:03027E0000027EFD
:03027F0000027FFB
:03028000000280F9
:03028100000281F7
:03028200000282F5
:03028300000283F3
:03028400000284F1
:03028500000285EF
:03028600000286ED
:03028700000287EB
:03028800000288E9
:03028900000289E7
:03028A0000028AE5
:03028B0000028BE3
:03028C0000028CE1
:03028D0000028DDF
:03028E0000028EDD
:03028F0000028FDB
:03029000000290D9
:03029100000291D7
:03029200000292D5
:03029300000293D3
:03029400000294D1
:03029500000295CF
:03029600000296CD
:03029700000297CB
:03029800000298C9
:03029900000299C7
:03029A0000029AC5
:03029B0000029BC3
:03029C0000029CC1
:03029D0000029DBF
:03029E0000029EBD
:03029F0000029FBB
:0302A0000002A0B9
:0302A1000002A1B7
:0302A2000002A2B5
:0302A3000002A3B3
:0302A4000002A4B1
:0302A5000002A5AF
:0302A6000002A6AD
:0302A7000002A7AB
:0302A8000002A8A9
:0302A9000002A9A7
:0302AA000002AAA5
:0302AB000002ABA3
:0302AC000002ACA1
:0302AD000002AD9F
:0302AE000002AE9D
:0302AF000002AF9B
:0302B0000002B099
:0302B1000002B197
:0302B2000002B295
:0302B3000002B393
:0302B4000002B491
:0302B5000002B58F
:0302B6000002B68D
:0302B7000002B78B
:0302B8000002B889
:0302B9000002B987
:0302BA000002BA85
:0302BB000002BB83
:0302BC000002BC81
:0302BD000002BD7F
:0302BE000002BE7D
:0302BF000002BF7B
:0302C0000002C079
:0302C1000002C177
:0302C2000002C275
:0302C3000002C373
:0302C4000002C471
:0302C5000002C56F
:0302C6000002C66D
:0302C7000002C76B
:0302C8000002C869
:0302C9000002C967
:0302CA000002CA65
:0302CB000002CB63
:0302CC000002CC61
:0302CD000002CD5F
:0302CE000002CE5D
:0302CF000002CF5B
:0302D0000002D059
:0302D1000002D157
:0302D2000002D255
:0302D3000002D353
:0302D4000002D451
:0302D5000002D54F
:0302D6000002D64D
:0302D7000002D74B
:0302D8000002D849
:0302D9000002D947
:0302DA000002DA45
:0302DB000002DB43
:0302DC000002DC41
:0302DD000002DD3F
:0302DE000002DE3D
:0302DF000002DF3B
:0302E0000002E039
:0302E1000002E137
:0302E2000002E235
:0302E3000002E333
:0302E4000002E431
:0302E5000002E52F
:0302E6000002E62D
:0302E7000002E72B
:0302E8000002E829
:0302E9000002E927
:0302EA000002EA25
:0302EB000002EB23
:0302EC000002EC21
:0302ED000002ED1F
:0302EE000002EE1D
:0302EF000002EF1B
:0302F0000002F019
:0302F1000002F117
:0302F2000002F215
:0302F3000002F313
:0302F4000002F411
:0302F5000002F50F
:0302F6000002F60D
:0302F7000002F70B
:0302F8000002F809
:0302F9000002F907
:0302FA000002FA05
:0302FB000002FB03
:0302FC000002FC01
:0302FD000002FDFF
:0302FE000002FEFD
:0302FF000002FFFB
:03030000000300F7
:03030100000301F5
:03030200000302F3
:03030300000303F1
:03030400000304EF
:03030500000305ED
:03030600000306EB
:03030700000307E9
:03030800000308E7
:03030900000309E5
:03030A0000030AE3
:03030B0000030BE1
:03030C0000030CDF
:03030D0000030DDD
:03030E0000030EDB
:03030F0000030FD9
:03031000000310D7
:03031100000311D5
:03031200000312D3
:03031300000313D1
:03031400000314CF
:03031500000315CD
:03031600000316CB
:03031700000317C9
:03031800000318C7
:03031900000319C5
:03031A0000031AC3
:03031B0000031BC1
:03031C0000031CBF
:03031D0000031DBD
:03031E0000031EBB
:03031F0000031FB9
:03032000000320B7
:03032100000321B5
:03032200000322B3
:03032300000323B1
:03032400000324AF
:03032500000325AD
:03032600000326AB
:03032700000327A9
:03032800000328A7
:03032900000329A5
:03032A0000032AA3
:03032B0000032BA1
:03032C0000032C9F
:03032D0000032D9D
:03032E0000032E9B
:03032F0000032F99
:0303300000033097
:0303310000033195
:0303320000033293
:0303330000033391
:030334000003348F
:030335000003358D
:030336000003368B
:0303370000033789
:0303380000033887
:0303390000033985
:03033A0000033A83
:03033B0000033B81
:03033C0000033C7F
:03033D0000033D7D
:03033E0000033E7B
:03033F0000033F79
:0303400000034077
:0303410000034175
:0303420000034273
:0303430000034371
:030344000003446F
:030345000003456D
:030346000003466B
:0303470000034769
:0303480000034867
:0303490000034965
:03034A0000034A63
:03034B0000034B61
:03034C0000034C5F
:03034D0000034D5D
:03034E0000034E5B
:03034F0000034F59
:0303500000035057
:0303510000035155
:0303520000035253
:0303530000035351
:030354000003544F
:030355000003554D
:030356000003564B
:0303570000035749
:0303580000035847
:0303590000035945
:03035A0000035A43
:03035B0000035B41
:03035C0000035C3F
:03035D0000035D3D
:03035E0000035E3B
:03035F0000035F39
:0303600000036037
:0303610000036135
:0303620000036233
:0303630000036331
:030364000003642F
:030365000003652D
:030366000003662B
:0303670000036729
:0303680000036827
:0303690000036925
:03036A0000036A23
:03036B0000036B21
:03036C0000036C1F
:03036D0000036D1D
:03036E0000036E1B
:03036F0000036F19
:0303700000037017
:0303710000037115
:0303720000037213
:0303730000037311
:030374000003740F
:030375000003750D
:030376000003760B
:0303770000037709
:0303780000037807
:0303790000037905
:03037A0000037A03
:03037B0000037B01
:03037C0000037CFF
:03037D0000037DFD
:03037E0000037EFB
:03037F0000037FF9
:03038000000380F7
:03038100000381F5
:03038200000382F3
:03038300000383F1
:03038400000384EF
:03038500000385ED
:03038600000386EB
:03038700000387E9
:03038800000388E7
:03038900000389E5
:03038A0000038AE3
:03038B0000038BE1
:03038C0000038CDF
:03038D0000038DDD
:03038E0000038EDB
:03038F0000038FD9
:03039000000390D7
:03039100000391D5
:03039200000392D3
:03039300000393D1
:03039400000394CF
:03039500000395CD
:03039600000396CB
:03039700000397C9
:03039800000398C7
:03039900000399C5
:03039A0000039AC3
:03039B0000039BC1
:03039C0000039CBF
:03039D0000039DBD
:03039E0000039EBB
:03039F0000039FB9
:0303A0000003A0B7
:0303A1000003A1B5
:0303A2000003A2B3
:0303A3000003A3B1
:0303A4000003A4AF
:0303A5000003A5AD
:0303A6000003A6AB
:0303A7000003A7A9
:0303A8000003A8A7
:0303A9000003A9A5
:0303AA000003AAA3
:0303AB000003ABA1
:0303AC000003AC9F
:0303AD000003AD9D
:0303AE000003AE9B
:0303AF000003AF99
:0303B0000003B097
:0303B1000003B195
:0303B2000003B293
:0303B3000003B391
:0303B4000003B48F
:0303B5000003B58D
:0303B6000003B68B
:0303B7000003B789
:0303B8000003B887
:0303B9000003B985
:0303BA000003BA83
:0303BB000003BB81
:0303BC000003BC7F
:0303BD000003BD7D
:0303BE000003BE7B
:0303BF000003BF79
:0303C0000003C077
:0303C1000003C175
:0303C2000003C273
:0303C3000003C371
:0303C4000003C46F
:0303C5000003C56D
:0303C6000003C66B
:0303C7000003C769
:0303C8000003C867
:0303C9000003C965
:0303CA000003CA63
:0303CB000003CB61
:0303CC000003CC5F
:0303CD000003CD5D
:0303CE000003CE5B
:0303CF000003CF59
:0303D0000003D057
:0303D1000003D155
:0303D2000003D253
:0303D3000003D351
:0303D4000003D44F
:0303D5000003D54D
:0303D6000003D64B
:0303D7000003D749
:0303D8000003D847
:0303D9000003D945
:0303DA000003DA43
:0303DB000003DB41
:0303DC000003DC3F
:0303DD000003DD3D
:0303DE000003DE3B
:0303DF000003DF39
:0303E0000003E037
:0303E1000003E135
:0303E2000003E233
:0303E3000003E331
:0303E4000003E42F
:0303E5000003E52D
:0303E6000003E62B
:0303E7000003E729
:0303E8000003E827
:0303E9000003E925
:0303EA000003EA23
:0303EB000003EB21
:0303EC000003EC1F
:0303ED000003ED1D
:0303EE000003EE1B
:0303EF000003EF19
:0303F0000003F017
:0303F1000003F115
:0303F2000003F213
:0303F3000003F311
:0303F4000003F40F
:0303F5000003F50D
:0303F6000003F60B
:0303F7000003F709
:0303F8000003F807
:0303F9000003F905
:0303FA000003FA03
:0303FB000003FB01
:0303FC000003FCFF
:0303FD000003FDFD
:0303FE000003FEFB
:0303FF000003FFF9
:03040000000400F5
:03040100000401F3
:03040200000402F1
:03040300000403EF
:03040400000404ED
:03040500000405EB
:03040600000406E9
:03040700000407E7
:03040800000408E5
:03040900000409E3
:03040A0000040AE1
:03040B0000040BDF
:03040C0000040CDD
:03040D0000040DDB
:03040E0000040ED9
:03040F0000040FD7
:03041000000410D5
:03041100000411D3
:03041200000412D1
:03041300000413CF
:03041400000414CD
:03041500000415CB
:03041600000416C9
:03041700000417C7
:03041800000418C5
:03041900000419C3
:03041A0000041AC1
:03041B0000041BBF
:03041C0000041CBD
:03041D0000041DBB
:03041E0000041EB9
:03041F0000041FB7
:03042000000420B5
:03042100000421B3
:03042200000422B1
:03042300000423AF
:03042400000424AD
:03042500000425AB
:03042600000426A9
:03042700000427A7
:03042800000428A5
:03042900000429A3
:03042A0000042AA1
:03042B0000042B9F
:03042C0000042C9D
:03042D0000042D9B
:03042E0000042E99
:03042F0000042F97
:0304300000043095
:0304310000043193
:0304320000043291
:030433000004338F
:030434000004348D
:030435000004358B
:0304360000043689
:0304370000043787
:0304380000043885
:0304390000043983
:03043A0000043A81
:03043B0000043B7F
:03043C0000043C7D
:03043D0000043D7B
:03043E0000043E79
:03043F0000043F77
:0304400000044075
:0304410000044173
:0304420000044271
:030443000004436F
:030444000004446D
:030445000004456B
:0304460000044669
:0304470000044767
:0304480000044865
:0304490000044963
:03044A0000044A61
:03044B0000044B5F
:03044C0000044C5D
:03044D0000044D5B
:03044E0000044E59
:03044F0000044F57
:0304500000045055
:0304510000045153
:0304520000045251
:030453000004534F
:030454000004544D
:030455000004554B
:0304560000045649
:0304570000045747
:0304580000045845
:0304590000045943
:03045A0000045A41
:03045B0000045B3F
:03045C0000045C3D
:03045D0000045D3B
:03045E0000045E39
:03045F0000045F37
:0304600000046035
:0304610000046133
:0304620000046231
:030463000004632F
:030464000004642D
:030465000004652B
:0304660000046629
:0304670000046727
:0304680000046825
:0304690000046923
:03046A0000046A21
:03046B0000046B1F
:03046C0000046C1D
:03046D0000046D1B
:03046E0000046E19
:03046F0000046F17
:0304700000047015
:0304710000047113
:0304720000047211
:030473000004730F
:030474000004740D
:030475000004750B
:0304760000047609
:0304770000047707
:0304780000047805
:0304790000047903
:03047A0000047A01
:03047B0000047BFF
:03047C0000047CFD
:03047D0000047DFB
:03047E0000047EF9
:03047F0000047FF7
:03048000000480F5
:03048100000481F3
:03048200000482F1
:03048300000483EF
:03048400000484ED
:03048500000485EB
:03048600000486E9
:03048700000487E7
:03048800000488E5
:03048900000489E3
:03048A0000048AE1
:03048B0000048BDF
:03048C0000048CDD
:03048D0000048DDB
:03048E0000048ED9
:03048F0000048FD7
:03049000000490D5
:03049100000491D3
:03049200000492D1
:03049300000493CF
:03049400000494CD
:03049500000495CB
:03049600000496C9
:03049700000497C7
:03049800000498C5
:03049900000499C3
:03049A0000049AC1
:03049B0000049BBF
:03049C0000049CBD
:03049D0000049DBB
:03049E0000049EB9
:03049F0000049FB7
:0304A0000004A0B5
:0304A1000004A1B3
:0304A2000004A2B1
:0304A3000004A3AF
:0304A4000004A4AD
:0304A5000004A5AB
:0304A6000004A6A9
:0304A7000004A7A7
:0304A8000004A8A5
:0304A9000004A9A3
:0304AA000004AAA1
:0304AB000004AB9F
:0304AC000004AC9D
:0304AD000004AD9B
:0304AE000004AE99
:0304AF000004AF97
:0304B0000004B095
:0304B1000004B193
:0304B2000004B291
:0304B3000004B38F
:0304B4000004B48D
:0304B5000004B58B
:0304B6000004B689
:0304B7000004B787
:0304B8000004B885
:0304B9000004B983
:0304BA000004BA81
:0304BB000004BB7F
:0304BC000004BC7D
:0304BD000004BD7B
:0304BE000004BE79
:0304BF000004BF77
:0304C0000004C075
:0304C1000004C173
:0304C2000004C271
:0304C3000004C36F
:0304C4000004C46D
:0304C5000004C56B
:0304C6000004C669
:0304C7000004C767
:0304C8000004C865
:0304C9000004C963
:0304CA000004CA61
:0304CB000004CB5F
:0304CC000004CC5D
:0304CD000004CD5B
:0304CE000004CE59
:0304CF000004CF57
:0304D0000004D055
:0304D1000004D153
:0304D2000004D251
:0304D3000004D34F
:0304D4000004D44D
:0304D5000004D54B
:0304D6000004D649
:0304D7000004D747
:0304D8000004D845
:0304D9000004D943
:0304DA000004DA41
:0304DB000004DB3F
:0304DC000004DC3D
:0304DD000004DD3B
:0304DE000004DE39
:0304DF000004DF37
:0304E0000004E035
:0304E1000004E133
:0304E2000004E231
:0304E3000004E32F
:0304E4000004E42D
:0304E5000004E52B
:0304E6000004E629
:0304E7000004E727
:0304E8000004E825
:0304E9000004E923
:0304EA000004EA21
:0304EB000004EB1F
:0304EC000004EC1D
:0304ED000004ED1B
:0304EE000004EE19
:0304EF000004EF17
:0304F0000004F015
:0304F1000004F113
:0304F2000004F211
:0304F3000004F30F
:0304F4000004F40D
:0304F5000004F50B
:0304F6000004F609
:0304F7000004F707
:0304F8000004F805
:0304F9000004F903
:0304FA000004FA01
:0304FB000004FBFF
:0304FC000004FCFD
:0304FD000004FDFB
:0304FE000004FEF9
:0304FF000004FFF7
:03050000000500F3
:03050100000501F1
:03050200000502EF
:03050300000503ED
:03050400000504EB
:03050500000505E9
:03050600000506E7
:03050700000507E5
:03050800000508E3
:03050900000509E1
:03050A0000050ADF
:03050B0000050BDD
:03050C0000050CDB
:03050D0000050DD9
:03050E0000050ED7
:03050F0000050FD5
:03051000000510D3
:03051100000511D1
:03051200000512CF
:03051300000513CD
:03051400000514CB
:03051500000515C9
:03051600000516C7
:03051700000517C5
:03051800000518C3
:03051900000519C1
:03051A0000051ABF
:03051B0000051BBD
:03051C0000051CBB
:03051D0000051DB9
:03051E0000051EB7
:03051F0000051FB5
:03052000000520B3
:03052100000521B1
:03052200000522AF
:03052300000523AD
:03052400000524AB
:03052500000525A9
:03052600000526A7
:03052700000527A5
:03052800000528A3
:03052900000529A1
:03052A0000052A9F
:03052B0000052B9D
:03052C0000052C9B
:03052D0000052D99
:03052E0000052E97
:03052F0000052F95
:0305300000053093
:0305310000053191
:030532000005328F
:030533000005338D
:030534000005348B
:0305350000053589
:0305360000053687
:0305370000053785
:0305380000053883
:0305390000053981
:03053A0000053A7F
:03053B0000053B7D
:03053C0000053C7B
:03053D0000053D79
:03053E0000053E77
:03053F0000053F75
:0305400000054073
:0305410000054171
:030542000005426F
:030543000005436D
:030544000005446B
:0305450000054569
:0305460000054667
:0305470000054765
:0305480000054863
:0305490000054961
:03054A0000054A5F
:03054B0000054B5D
:03054C0000054C5B
:03054D0000054D59
:03054E0000054E57
:03054F0000054F55
:0305500000055053
:0305510000055151
:030552000005524F
:030553000005534D
:030554000005544B
:0305550000055549
:0305560000055647
:0305570000055745
:0305580000055843
:0305590000055941
:03055A0000055A3F
:03055B0000055B3D
:03055C0000055C3B
:03055D0000055D39
:03055E0000055E37
:03055F0000055F35
:0305600000056033
:0305610000056131
:030562000005622F
:030563000005632D
:030564000005642B
:0305650000056529
:0305660000056627
:0305670000056725
:0305680000056823
:0305690000056921
:03056A0000056A1F
:03056B0000056B1D
:03056C0000056C1B
:03056D0000056D19
:03056E0000056E17
:03056F0000056F15
:0305700000057013
:0305710000057111
:030572000005720F
:030573000005730D
:030574000005740B
:0305750000057509
:0305760000057607
:0305770000057705
:0305780000057803
:0305790000057901
:03057A0000057AFF
:03057B0000057BFD
:03057C0000057CFB
:03057D0000057DF9
:03057E0000057EF7
:03057F0000057FF5
:03058000000580F3
:03058100000581F1
:03058200000582EF
:03058300000583ED
:03058400000584EB
:03058500000585E9
:03058600000586E7
:03058700000587E5
:03058800000588E3
:03058900000589E1
:03058A0000058ADF
:03058B0000058BDD
:03058C0000058CDB
:03058D0000058DD9
:03058E0000058ED7
:03058F0000058FD5
:03059000000590D3
:03059100000591D1
:03059200000592CF
:03059300000593CD
:03059400000594CB
:03059500000595C9
:03059600000596C7
:03059700000597C5
:03059800000598C3
:03059900000599C1
:03059A0000059ABF
:03059B0000059BBD
:03059C0000059CBB
:03059D0000059DB9
:03059E0000059EB7
:03059F0000059FB5
:0305A0000005A0B3
:0305A1000005A1B1
:0305A2000005A2AF
:0305A3000005A3AD
:0305A4000005A4AB
:0305A5000005A5A9
:0305A6000005A6A7
:0305A7000005A7A5
:0305A8000005A8A3
:0305A9000005A9A1
:0305AA000005AA9F
:0305AB000005AB9D
:0305AC000005AC9B
:0305AD000005AD99
:0305AE000005AE97
:0305AF000005AF95
:0305B0000005B093
:0305B1000005B191
:0305B2000005B28F
:0305B3000005B38D
:0305B4000005B48B
:0305B5000005B589
:0305B6000005B687
:0305B7000005B785
:0305B8000005B883
:0305B9000005B981
:0305BA000005BA7F
:0305BB000005BB7D
:0305BC000005BC7B
:0305BD000005BD79
:0305BE000005BE77
:0305BF000005BF75
:0305C0000005C073
:0305C1000005C171
:0305C2000005C26F
:0305C3000005C36D
:0305C4000005C46B
:0305C5000005C569
:0305C6000005C667
:0305C7000005C765
:0305C8000005C863
:0305C9000005C961
:0305CA000005CA5F
:0305CB000005CB5D
:0305CC000005CC5B
:0305CD000005CD59
:0305CE000005CE57
:0305CF000005CF55
:0305D0000005D053
:0305D1000005D151
:0305D2000005D24F
:0305D3000005D34D
:0305D4000005D44B
:0305D5000005D549
:0305D6000005D647
:0305D7000005D745
:0305D8000005D843
:0305D9000005D941
:0305DA000005DA3F
:0305DB000005DB3D
:0305DC000005DC3B
:0305DD000005DD39
:0305DE000005DE37
:0305DF000005DF35
:0305E0000005E033
:0305E1000005E131
:0305E2000005E22F
:0305E3000005E32D
:0305E4000005E42B
:0305E5000005E529
:0305E6000005E627
:0305E7000005E725
:0305E8000005E823
:0305E9000005E921
:0305EA000005EA1F
:0305EB000005EB1D
:0305EC000005EC1B
:0305ED000005ED19
:0305EE000005EE17
:0305EF000005EF15
:0305F0000005F013
:0305F1000005F111
:0305F2000005F20F
:0305F3000005F30D
:0305F4000005F40B
:0305F5000005F509
:0305F6000005F607
:0305F7000005F705
:0305F8000005F803
:0305F9000005F901
:0305FA000005FAFF
:0305FB000005FBFD
:0305FC000005FCFB
:0305FD000005FDF9
:0305FE000005FEF7
:0305FF000005FFF5
:03060000000600F1
:03060100000601EF
:03060200000602ED
:03060300000603EB
:03060400000604E9
:03060500000605E7
:03060600000606E5
:03060700000607E3
:03060800000608E1
:03060900000609DF
:03060A0000060ADD
:03060B0000060BDB
:03060C0000060CD9
:03060D0000060DD7
:03060E0000060ED5
:03060F0000060FD3
:03061000000610D1
:03061100000611CF
:03061200000612CD
:03061300000613CB
:03061400000614C9
:03061500000615C7
:03061600000616C5
:03061700000617C3
:03061800000618C1
:03061900000619BF
:03061A0000061ABD
:03061B0000061BBB
:03061C0000061CB9
:03061D0000061DB7
:03061E0000061EB5
:03061F0000061FB3
:03062000000620B1
:03062100000621AF
:03062200000622AD
:03062300000623AB
:03062400000624A9
:03062500000625A7
:03062600000626A5
:03062700000627A3
:03062800000628A1
:030629000006299F
:03062A0000062A9D
:03062B0000062B9B
:03062C0000062C99
:03062D0000062D97
:03062E0000062E95
:03062F0000062F93
:0306300000063091
:030631000006318F
:030632000006328D
:030633000006338B
:0306340000063489
:0306350000063587
:0306360000063685
:0306370000063783
:0306380000063881
:030639000006397F
:03063A0000063A7D
:03063B0000063B7B
:03063C0000063C79
:03063D0000063D77
:03063E0000063E75
:03063F0000063F73
:0306400000064071
:030641000006416F
:030642000006426D
:030643000006436B
:0306440000064469
:0306450000064567
:0306460000064665
:0306470000064763
:0306480000064861
:030649000006495F
:03064A0000064A5D
:03064B0000064B5B
:03064C0000064C59
:03064D0000064D57
:03064E0000064E55
:03064F0000064F53
:0306500000065051
:030651000006514F
:030652000006524D
:030653000006534B
:0306540000065449
:0306550000065547
:0306560000065645
:0306570000065743
:0306580000065841
:030659000006593F
:03065A0000065A3D
:03065B0000065B3B
:03065C0000065C39
:03065D0000065D37
:03065E0000065E35
:03065F0000065F33
:0306600000066031
:030661000006612F
:030662000006622D
:030663000006632B
:0306640000066429
:0306650000066527
:0306660000066625
:0306670000066723
:0306680000066821
:030669000006691F
:03066A0000066A1D
:03066B0000066B1B
:03066C0000066C19
:03066D0000066D17
:03066E0000066E15
:03066F0000066F13
:0306700000067011
:030671000006710F
:030672000006720D
:030673000006730B
:0306740000067409
:0306750000067507
:0306760000067605
:0306770000067703
:0306780000067801
:03067900000679FF
:03067A0000067AFD
:03067B0000067BFB
:03067C0000067CF9
:03067D0000067DF7
:03067E0000067EF5
:03067F0000067FF3
:03068000000680F1
:03068100000681EF
:03068200000682ED
:03068300000683EB
:03068400000684E9
:03068500000685E7
:03068600000686E5
:03068700000687E3
:03068800000688E1
:03068900000689DF
:03068A0000068ADD
:03068B0000068BDB
:03068C0000068CD9
:03068D0000068DD7
:03068E0000068ED5
:03068F0000068FD3
:03069000000690D1
:03069100000691CF
:03069200000692CD
:03069300000693CB
:03069400000694C9
:03069500000695C7
:03069600000696C5
:03069700000697C3
:03069800000698C1
:03069900000699BF
:03069A0000069ABD
:03069B0000069BBB
:03069C0000069CB9
:03069D0000069DB7
:03069E0000069EB5
:03069F0000069FB3
:0306A0000006A0B1
:0306A1000006A1AF
:0306A2000006A2AD
:0306A3000006A3AB
:0306A4000006A4A9
:0306A5000006A5A7
:0306A6000006A6A5
:0306A7000006A7A3
:0306A8000006A8A1
:0306A9000006A99F
:0306AA000006AA9D
:0306AB000006AB9B
:0306AC000006AC99
:0306AD000006AD97
:0306AE000006AE95
:0306AF000006AF93
:0306B0000006B091
:0306B1000006B18F
:0306B2000006B28D
:0306B3000006B38B
:0306B4000006B489
:0306B5000006B587
:0306B6000006B685
:0306B7000006B783
:0306B8000006B881
:0306B9000006B97F
:0306BA000006BA7D
:0306BB000006BB7B
:0306BC000006BC79
:0306BD000006BD77
:0306BE000006BE75
:0306BF000006BF73
:0306C0000006C071
:0306C1000006C16F
:0306C2000006C26D
:0306C3000006C36B
:0306C4000006C469
:0306C5000006C567
:0306C6000006C665
:0306C7000006C763
:0306C8000006C861
:0306C9000006C95F
:0306CA000006CA5D
:0306CB000006CB5B
:0306CC000006CC59
:0306CD000006CD57
:0306CE000006CE55
:0306CF000006CF53
:0306D0000006D051
:0306D1000006D14F
:0306D2000006D24D
:0306D3000006D34B
:0306D4000006D449
:0306D5000006D547
:0306D6000006D645
:0306D7000006D743
:0306D8000006D841
:0306D9000006D93F
:0306DA000006DA3D
:0306DB000006DB3B
:0306DC000006DC39
:0306DD000006DD37
:0306DE000006DE35
:0306DF000006DF33
:0306E0000006E031
:0306E1000006E12F
:0306E2000006E22D
:0306E3000006E32B
:0306E4000006E429
:0306E5000006E527
:0306E6000006E625
:0306E7000006E723
:0306E8000006E821
:0306E9000006E91F
:0306EA000006EA1D
:0306EB000006EB1B
:0306EC000006EC19
:0306ED000006ED17
:0306EE000006EE15
:0306EF000006EF13
:0306F0000006F011
:0306F1000006F10F
:0306F2000006F20D
:0306F3000006F30B
:0306F4000006F409
:0306F5000006F507
:0306F6000006F605
:0306F7000006F703
:0306F8000006F801
:0306F9000006F9FF
:0306FA000006FAFD
:0306FB000006FBFB
:0306FC000006FCF9
:0306FD000006FDF7
:0306FE000006FEF5
:0306FF000006FFF3
:03070000000700EF
:03070100000701ED
:03070200000702EB
:03070300000703E9
:03070400000704E7
:03070500000705E5
:03070600000706E3
:03070700000707E1
:03070800000708DF
:03070900000709DD
:03070A0000070ADB
:03070B0000070BD9
:03070C0000070CD7
:03070D0000070DD5
:03070E0000070ED3
:03070F0000070FD1
:03071000000710CF
:03071100000711CD
:03071200000712CB
:03071300000713C9
:03071400000714C7
:03071500000715C5
:03071600000716C3
:03071700000717C1
:03071800000718BF
:03071900000719BD
:03071A0000071ABB
:03071B0000071BB9
:03071C0000071CB7
:03071D0000071DB5
:03071E0000071EB3
:03071F0000071FB1
:03072000000720AF
:03072100000721AD
:03072200000722AB
:03072300000723A9
:03072400000724A7
:03072500000725A5
:03072600000726A3
:03072700000727A1
:030728000007289F
:030729000007299D
:03072A0000072A9B
:03072B0000072B99
:03072C0000072C97
:03072D0000072D95
:03072E0000072E93
:03072F0000072F91
:030730000007308F
:030731000007318D
:030732000007328B
:0307330000073389
:0307340000073487
:0307350000073585
:0307360000073683
:0307370000073781
:030738000007387F
:030739000007397D
:03073A0000073A7B
:03073B0000073B79
:03073C0000073C77
:03073D0000073D75
:03073E0000073E73
:03073F0000073F71
:030740000007406F
:030741000007416D
:030742000007426B
:0307430000074369
:0307440000074467
:0307450000074565
:0307460000074663
:0307470000074761
:030748000007485F
:030749000007495D
:03074A0000074A5B
:03074B0000074B59
:03074C0000074C57
:03074D0000074D55
:03074E0000074E53
:03074F0000074F51
:030750000007504F
:030751000007514D
:030752000007524B
:0307530000075349
:0307540000075447
:0307550000075545
:0307560000075643
:0307570000075741
:030758000007583F
:030759000007593D
:03075A0000075A3B
:03075B0000075B39
:03075C0000075C37
:03075D0000075D35
:03075E0000075E33
:03075F0000075F31
:030760000007602F
:030761000007612D
:030762000007622B
:0307630000076329
:0307640000076427
:0307650000076525
:0307660000076623
:0307670000076721
:030768000007681F
:030769000007691D
:03076A0000076A1B
:03076B0000076B19
:03076C0000076C17
:03076D0000076D15
:03076E0000076E13
:03076F0000076F11
:030770000007700F
:030771000007710D
:030772000007720B
:0307730000077309
:0307740000077407
:0307750000077505
:0307760000077603
:0307770000077701
:03077800000778FF
:03077900000779FD
:03077A0000077AFB
:03077B0000077BF9
:03077C0000077CF7
:03077D0000077DF5
:03077E0000077EF3
:03077F0000077FF1
:03078000000780EF
:03078100000781ED
:03078200000782EB
:03078300000783E9
:03078400000784E7
:03078500000785E5
:03078600000786E3
:03078700000787E1
:03078800000788DF
:03078900000789DD
:03078A0000078ADB
:03078B0000078BD9
:03078C0000078CD7
:03078D0000078DD5
:03078E0000078ED3
:03078F0000078FD1
:03079000000790CF
:03079100000791CD
:03079200000792CB
:03079300000793C9
:03079400000794C7
:03079500000795C5
:03079600000796C3
:03079700000797C1
:03079800000798BF
:03079900000799BD
:03079A0000079ABB
:03079B0000079BB9
:03079C0000079CB7
:03079D0000079DB5
:03079E0000079EB3
:03079F0000079FB1
:0307A0000007A0AF
:0307A1000007A1AD
:0307A2000007A2AB
:0307A3000007A3A9
:0307A4000007A4A7
:0307A5000007A5A5
:0307A6000007A6A3
:0307A7000007A7A1
:0307A8000007A89F
:0307A9000007A99D
:0307AA000007AA9B
:0307AB000007AB99
:0307AC000007AC97
:0307AD000007AD95
:0307AE000007AE93
:0307AF000007AF91
:0307B0000007B08F
:0307B1000007B18D
:0307B2000007B28B
:0307B3000007B389
:0307B4000007B487
:0307B5000007B585
:0307B6000007B683
:0307B7000007B781
:0307B8000007B87F
:0307B9000007B97D
:0307BA000007BA7B
:0307BB000007BB79
:0307BC000007BC77
:0307BD000007BD75
:0307BE000007BE73
:0307BF000007BF71
:0307C0000007C06F
:0307C1000007C16D
:0307C2000007C26B
:0307C3000007C369
:0307C4000007C467
:0307C5000007C565
:0307C6000007C663
:0307C7000007C761
:0307C8000007C85F
:0307C9000007C95D
:0307CA000007CA5B
:0307CB000007CB59
:0307CC000007CC57
:0307CD000007CD55
:0307CE000007CE53
:0307CF000007CF51
:0307D0000007D04F
:0307D1000007D14D
:0307D2000007D24B
:0307D3000007D349
:0307D4000007D447
:0307D5000007D545
:0307D6000007D643
:0307D7000007D741
:0307D8000007D83F
:0307D9000007D93D
:0307DA000007DA3B
:0307DB000007DB39
:0307DC000007DC37
:0307DD000007DD35
:0307DE000007DE33
:0307DF000007DF31
:0307E0000007E02F
:0307E1000007E12D
:0307E2000007E22B
:0307E3000007E329
:0307E4000007E427
:0307E5000007E525
:0307E6000007E623
:0307E7000007E721
:0307E8000007E81F
:0307E9000007E91D
:0307EA000007EA1B
:0307EB000007EB19
:0307EC000007EC17
:0307ED000007ED15
:0307EE000007EE13
:0307EF000007EF11
:0307F0000007F00F
:0307F1000007F10D
:0307F2000007F20B
:0307F3000007F309
:0307F4000007F407
:0307F5000007F505
:0307F6000007F603
:0307F7000007F701
:0307F8000007F8FF
:0307F9000007F9FD
:0307FA000007FAFB
:0307FB000007FBF9
:0307FC000007FCF7
:0307FD000007FDF5
:0307FE000007FEF3
:0307FF000007FFF1
:03080000000800ED
:03080100000801EB
:03080200000802E9
:03080300000803E7
:03080400000804E5
:03080500000805E3
:03080600000806E1
:03080700000807DF
:03080800000808DD
:03080900000809DB
:03080A0000080AD9
:03080B0000080BD7
:03080C0000080CD5
:03080D0000080DD3
:03080E0000080ED1
:03080F0000080FCF
:03081000000810CD
:03081100000811CB
:03081200000812C9
:03081300000813C7
:03081400000814C5
:03081500000815C3
:03081600000816C1
:03081700000817BF
:03081800000818BD
:03081900000819BB
:03081A0000081AB9
:03081B0000081BB7
:03081C0000081CB5
:03081D0000081DB3
:03081E0000081EB1
:03081F0000081FAF
:03082000000820AD
:03082100000821AB
:03082200000822A9
:03082300000823A7
:03082400000824A5
:03082500000825A3
:03082600000826A1
:030827000008279F
:030828000008289D
:030829000008299B
:03082A0000082A99
:03082B0000082B97
:03082C0000082C95
:03082D0000082D93
:03082E0000082E91
:03082F0000082F8F
:030830000008308D
:030831000008318B
:0308320000083289
:0308330000083387
:0308340000083485
:0308350000083583
:0308360000083681
:030837000008377F
:030838000008387D
:030839000008397B
:03083A0000083A79
:03083B0000083B77
:03083C0000083C75
:03083D0000083D73
:03083E0000083E71
:03083F0000083F6F
:030840000008406D
:030841000008416B
:0308420000084269
:0308430000084367
:0308440000084465
:0308450000084563
:0308460000084661
:030847000008475F
:030848000008485D
:030849000008495B
:03084A0000084A59
:03084B0000084B57
:03084C0000084C55
:03084D0000084D53
:03084E0000084E51
:03084F0000084F4F
:030850000008504D
:030851000008514B
:0308520000085249
:0308530000085347
:0308540000085445
:0308550000085543
:0308560000085641
:030857000008573F
:030858000008583D
:030859000008593B
:03085A0000085A39
:03085B0000085B37
:03085C0000085C35
:03085D0000085D33
:03085E0000085E31
:03085F0000085F2F
:030860000008602D
:030861000008612B
:0308620000086229
:0308630000086327
:0308640000086425
:0308650000086523
:0308660000086621
:030867000008671F
:030868000008681D
:030869000008691B
:03086A0000086A19
:03086B0000086B17
:03086C0000086C15
:03086D0000086D13
:03086E0000086E11
:03086F0000086F0F
:030870000008700D
:030871000008710B
:0308720000087209
:0308730000087307
:0308740000087405
:0308750000087503
:0308760000087601
:03087700000877FF
:03087800000878FD
:03087900000879FB
:03087A0000087AF9
:03087B0000087BF7
:03087C0000087CF5
:03087D0000087DF3
:03087E0000087EF1
:03087F0000087FEF
:03088000000880ED
:03088100000881EB
:03088200000882E9
:03088300000883E7
:03088400000884E5
:03088500000885E3
:03088600000886E1
:03088700000887DF
:03088800000888DD
:03088900000889DB
:03088A0000088AD9
:03088B0000088BD7
:03088C0000088CD5
:03088D0000088DD3
:03088E0000088ED1
:03088F0000088FCF
:03089000000890CD
:03089100000891CB
:03089200000892C9
:03089300000893C7
:03089400000894C5
:03089500000895C3
:03089600000896C1
:03089700000897BF
:03089800000898BD
:03089900000899BB
:03089A0000089AB9
:03089B0000089BB7
:03089C0000089CB5
:03089D0000089DB3
:03089E0000089EB1
:03089F0000089FAF
:0308A0000008A0AD
:0308A1000008A1AB
:0308A2000008A2A9
:0308A3000008A3A7
:0308A4000008A4A5
:0308A5000008A5A3
:0308A6000008A6A1
:0308A7000008A79F
:0308A8000008A89D
:0308A9000008A99B
:0308AA000008AA99
:0308AB000008AB97
:0308AC000008AC95
:0308AD000008AD93
:0308AE000008AE91
:0308AF000008AF8F
:0308B0000008B08D
:0308B1000008B18B
:0308B2000008B289
:0308B3000008B387
:0308B4000008B485
:0308B5000008B583
:0308B6000008B681
:0308B7000008B77F
:0308B8000008B87D
:0308B9000008B97B
:0308BA000008BA79
:0308BB000008BB77
:0308BC000008BC75
:0308BD000008BD73
:0308BE000008BE71
:0308BF000008BF6F
:0308C0000008C06D
:0308C1000008C16B
:0308C2000008C269
:0308C3000008C367
:0308C4000008C465
:0308C5000008C563
:0308C6000008C661
:0308C7000008C75F
:0308C8000008C85D
:0308C9000008C95B
:0308CA000008CA59
:0308CB000008CB57
:0308CC000008CC55
:0308CD000008CD53
:0308CE000008CE51
:0308CF000008CF4F
:0308D0000008D04D
:0308D1000008D14B
:0308D2000008D249
:0308D3000008D347
:0308D4000008D445
:0308D5000008D543
:0308D6000008D641
:0308D7000008D73F
:0308D8000008D83D
:0308D9000008D93B
:0308DA000008DA39
:0308DB000008DB37
:0308DC000008DC35
:0308DD000008DD33
:0308DE000008DE31
:0308DF000008DF2F
:0308E0000008E02D
:0308E1000008E12B
:0308E2000008E229
:0308E3000008E327
:0308E4000008E425
:0308E5000008E523
:0308E6000008E621
:0308E7000008E71F
:0308E8000008E81D
:0308E9000008E91B
:0308EA000008EA19
:0308EB000008EB17
:0308EC000008EC15
:0308ED000008ED13
:0308EE000008EE11
:0308EF000008EF0F
:0308F0000008F00D
:0308F1000008F10B
:0308F2000008F209
:0308F3000008F307
:0308F4000008F405
:0308F5000008F503
:0308F6000008F601
:0308F7000008F7FF
:0308F8000008F8FD
:0308F9000008F9FB
:0308FA000008FAF9
:0308FB000008FBF7
:0308FC000008FCF5
:0308FD000008FDF3
:0308FE000008FEF1
:0308FF000008FFEF
:03090000000900EB
:03090100000901E9
:03090200000902E7
:03090300000903E5
:03090400000904E3
:03090500000905E1
:03090600000906DF
:03090700000907DD
:03090800000908DB
:03090900000909D9
:03090A0000090AD7
:03090B0000090BD5
:03090C0000090CD3
:03090D0000090DD1
:03090E0000090ECF
:03090F0000090FCD
:03091000000910CB
:03091100000911C9
:03091200000912C7
:03091300000913C5
:03091400000914C3
:03091500000915C1
:03091600000916BF
:03091700000917BD
:03091800000918BB
:03091900000919B9
:03091A0000091AB7
:03091B0000091BB5
:03091C0000091CB3
:03091D0000091DB1
:03091E0000091EAF
:03091F0000091FAD
:03092000000920AB
:03092100000921A9
:03092200000922A7
:03092300000923A5
:03092400000924A3
:03092500000925A1
:030926000009269F
:030927000009279D
:030928000009289B
:0309290000092999
:03092A0000092A97
:03092B0000092B95
:03092C0000092C93
:03092D0000092D91
:03092E0000092E8F
:03092F0000092F8D
:030930000009308B
:0309310000093189
:0309320000093287
:0309330000093385
:0309340000093483
:0309350000093581
:030936000009367F
:030937000009377D
:030938000009387B
:0309390000093979
:03093A0000093A77
:03093B0000093B75
:03093C0000093C73
:03093D0000093D71
:03093E0000093E6F
:03093F0000093F6D
:030940000009406B
:0309410000094169
:0309420000094267
:0309430000094365
:0309440000094463
:0309450000094561
:030946000009465F
:030947000009475D
:030948000009485B
:0309490000094959
:03094A0000094A57
:03094B0000094B55
:03094C0000094C53
:03094D0000094D51
:03094E0000094E4F
:03094F0000094F4D
:030950000009504B
:0309510000095149
:0309520000095247
:0309530000095345
:0309540000095443
:0309550000095541
:030956000009563F
:030957000009573D
:030958000009583B
:0309590000095939
:03095A0000095A37
:03095B0000095B35
:03095C0000095C33
:03095D0000095D31
:03095E0000095E2F
:03095F0000095F2D
:030960000009602B
:0309610000096129
:0309620000096227
:0309630000096325
:0309640000096423
:0309650000096521
:030966000009661F
:030967000009671D
:030968000009681B
:0309690000096919
:03096A0000096A17
:03096B0000096B15
:03096C0000096C13
:03096D0000096D11
:03096E0000096E0F
:03096F0000096F0D
:030970000009700B
:0309710000097109
:0309720000097207
:0309730000097305
:0309740000097403
:0309750000097501
:03097600000976FF
:03097700000977FD
:03097800000978FB
:03097900000979F9
:03097A0000097AF7
:03097B0000097BF5
:03097C0000097CF3
:03097D0000097DF1
:03097E0000097EEF
:03097F0000097FED
:03098000000980EB
:03098100000981E9
:03098200000982E7
:03098300000983E5
:03098400000984E3
:03098500000985E1
:03098600000986DF
:03098700000987DD
:03098800000988DB
:03098900000989D9
:03098A0000098AD7
:03098B0000098BD5
:03098C0000098CD3
:03098D0000098DD1
:03098E0000098ECF
:03098F0000098FCD
:03099000000990CB
:03099100000991C9
:03099200000992C7
:03099300000993C5
:03099400000994C3
:03099500000995C1
:03099600000996BF
:03099700000997BD
:03099800000998BB
:03099900000999B9
:03099A0000099AB7
:03099B0000099BB5
:03099C0000099CB3
:03099D0000099DB1
:03099E0000099EAF
:03099F0000099FAD
:0309A0000009A0AB
:0309A1000009A1A9
:0309A2000009A2A7
:0309A3000009A3A5
:0309A4000009A4A3
:0309A5000009A5A1
:0309A6000009A69F
:0309A7000009A79D
:0309A8000009A89B
:0309A9000009A999
:0309AA000009AA97
:0309AB000009AB95
:0309AC000009AC93
:0309AD000009AD91
:0309AE000009AE8F
:0309AF000009AF8D
:0309B0000009B08B
:0309B1000009B189
:0309B2000009B287
:0309B3000009B385
:0309B4000009B483
:0309B5000009B581
:0309B6000009B67F
:0309B7000009B77D
:0309B8000009B87B
:0309B9000009B979
:0309BA000009BA77
:0309BB000009BB75
:0309BC000009BC73
:0309BD000009BD71
:0309BE000009BE6F
:0309BF000009BF6D
:0309C0000009C06B
:0309C1000009C169
:0309C2000009C267
:0309C3000009C365
:0309C4000009C463
:0309C5000009C561
:0309C6000009C65F
:0309C7000009C75D
:0309C8000009C85B
:0309C9000009C959
:0309CA000009CA57
:0309CB000009CB55
:0309CC000009CC53
:0309CD000009CD51
:0309CE000009CE4F
:0309CF000009CF4D
:0309D0000009D04B
:0309D1000009D149
:0309D2000009D247
:0309D3000009D345
:0309D4000009D443
:0309D5000009D541
:0309D6000009D63F
:0309D7000009D73D
:0309D8000009D83B
:0309D9000009D939
:0309DA000009DA37
:0309DB000009DB35
:0309DC000009DC33
:0309DD000009DD31
:0309DE000009DE2F
:0309DF000009DF2D
:0309E0000009E02B
:0309E1000009E129
:0309E2000009E227
:0309E3000009E325
:0309E4000009E423
:0309E5000009E521
:0309E6000009E61F
:0309E7000009E71D
:0309E8000009E81B
:0309E9000009E919
:0309EA000009EA17
:0309EB000009EB15
:0309EC000009EC13
:0309ED000009ED11
:0309EE000009EE0F
:0309EF000009EF0D
:0309F0000009F00B
:0309F1000009F109
:0309F2000009F207
:0309F3000009F305
:0309F4000009F403
:0309F5000009F501
:0309F6000009F6FF
:0309F7000009F7FD
:0309F8000009F8FB
:0309F9000009F9F9
:0309FA000009FAF7
:0309FB000009FBF5
:0309FC000009FCF3
:0309FD000009FDF1
:0309FE000009FEEF
:0309FF000009FFED
:030A0000000A00E9
:030A0100000A01E7
:030A0200000A02E5
:030A0300000A03E3
:030A0400000A04E1
:030A0500000A05DF
:030A0600000A06DD
:030A0700000A07DB
:030A0800000A08D9
:030A0900000A09D7
:030A0A00000A0AD5
:030A0B00000A0BD3
:030A0C00000A0CD1
:030A0D00000A0DCF
:030A0E00000A0ECD
:030A0F00000A0FCB
:030A1000000A10C9
:030A1100000A11C7
:030A1200000A12C5
:030A1300000A13C3
:030A1400000A14C1
:030A1500000A15BF
:030A1600000A16BD
:030A1700000A17BB
:030A1800000A18B9
:030A1900000A19B7
:030A1A00000A1AB5
:030A1B00000A1BB3
:030A1C00000A1CB1
:030A1D00000A1DAF
:030A1E00000A1EAD
:030A1F00000A1FAB
:030A2000000A20A9
:030A2100000A21A7
:030A2200000A22A5
:030A2300000A23A3
:030A2400000A24A1
:030A2500000A259F
:030A2600000A269D
:030A2700000A279B
:030A2800000A2899
:030A2900000A2997
:030A2A00000A2A95
:030A2B00000A2B93
:030A2C00000A2C91
:030A2D00000A2D8F
:030A2E00000A2E8D
:030A2F00000A2F8B
:030A3000000A3089
:030A3100000A3187
:030A3200000A3285
:030A3300000A3383
:030A3400000A3481
:030A3500000A357F
:030A3600000A367D
:030A3700000A377B
:030A3800000A3879
:030A3900000A3977
:030A3A00000A3A75
:030A3B00000A3B73
:030A3C00000A3C71
:030A3D00000A3D6F
:030A3E00000A3E6D
:030A3F00000A3F6B
:030A4000000A4069
:030A4100000A4167
:030A4200000A4265
:030A4300000A4363
:030A4400000A4461
:030A4500000A455F
:030A4600000A465D
:030A4700000A475B
:030A4800000A4859
:030A4900000A4957
:030A4A00000A4A55
:030A4B00000A4B53
:030A4C00000A4C51
:030A4D00000A4D4F
:030A4E00000A4E4D
:030A4F00000A4F4B
:030A5000000A5049
:030A5100000A5147
:030A5200000A5245
:030A5300000A5343
:030A5400000A5441
:030A5500000A553F
:030A5600000A563D
:030A5700000A573B
:030A5800000A5839
:030A5900000A5937
:030A5A00000A5A35
:030A5B00000A5B33
:030A5C00000A5C31
:030A5D00000A5D2F
:030A5E00000A5E2D
:030A5F00000A5F2B
:030A6000000A6029
:030A6100000A6127
:030A6200000A6225
:030A6300000A6323
:030A6400000A6421
:030A6500000A651F
:030A6600000A661D
:030A6700000A671B
:030A6800000A6819
:030A6900000A6917
:030A6A00000A6A15
:030A6B00000A6B13
:030A6C00000A6C11
:030A6D00000A6D0F
:030A6E00000A6E0D
:030A6F00000A6F0B
:030A7000000A7009
:030A7100000A7107
:030A7200000A7205
:030A7300000A7303
:030A7400000A7401
:030A7500000A75FF
:030A7600000A76FD
:030A7700000A77FB
:030A7800000A78F9
:030A7900000A79F7
:030A7A00000A7AF5
:030A7B00000A7BF3
:030A7C00000A7CF1
:030A7D00000A7DEF
:030A7E00000A7EED
:030A7F00000A7FEB
:030A8000000A80E9
:030A8100000A81E7
:030A8200000A82E5
:030A8300000A83E3
:030A8400000A84E1
:030A8500000A85DF
:030A8600000A86DD
:030A8700000A87DB
:030A8800000A88D9
:030A8900000A89D7
:030A8A00000A8AD5
:030A8B00000A8BD3
:030A8C00000A8CD1
:030A8D00000A8DCF
:030A8E00000A8ECD
:030A8F00000A8FCB
:030A9000000A90C9
:030A9100000A91C7
:030A9200000A92C5
:030A9300000A93C3
:030A9400000A94C1
:030A9500000A95BF
:030A9600000A96BD
:030A9700000A97BB
:030A9800000A98B9
:030A9900000A99B7
:030A9A00000A9AB5
:030A9B00000A9BB3
:030A9C00000A9CB1
:030A9D00000A9DAF
:030A9E00000A9EAD
:030A9F00000A9FAB
:030AA000000AA0A9
:030AA100000AA1A7
:030AA200000AA2A5
:030AA300000AA3A3
:030AA400000AA4A1
:030AA500000AA59F
:030AA600000AA69D
:030AA700000AA79B
:030AA800000AA899
:030AA900000AA997
:030AAA00000AAA95
:030AAB00000AAB93
:030AAC00000AAC91
:030AAD00000AAD8F
:030AAE00000AAE8D
:030AAF00000AAF8B
:030AB000000AB089
:030AB100000AB187
:030AB200000AB285
:030AB300000AB383
:030AB400000AB481
:030AB500000AB57F
:030AB600000AB67D
:030AB700000AB77B
:030AB800000AB879
:030AB900000AB977
:030ABA00000ABA75
:030ABB00000ABB73
:030ABC00000ABC71
:030ABD00000ABD6F
:030ABE00000ABE6D
:030ABF00000ABF6B
:030AC000000AC069
:030AC100000AC167
:030AC200000AC265
:030AC300000AC363
:030AC400000AC461
:030AC500000AC55F
:030AC600000AC65D
:030AC700000AC75B
:030AC800000AC859
:030AC900000AC957
:030ACA00000ACA55
:030ACB00000ACB53
:030ACC00000ACC51
:030ACD00000ACD4F
:030ACE00000ACE4D
:030ACF00000ACF4B
:030AD000000AD049
:030AD100000AD147
:030AD200000AD245
:030AD300000AD343
:030AD400000AD441
:030AD500000AD53F
:030AD600000AD63D
:030AD700000AD73B
:030AD800000AD839
:030AD900000AD937
:030ADA00000ADA35
:030ADB00000ADB33
:030ADC00000ADC31
:030ADD00000ADD2F
:030ADE00000ADE2D
:030ADF00000ADF2B
:030AE000000AE029
:030AE100000AE127
:030AE200000AE225
:030AE300000AE323
:030AE400000AE421
:030AE500000AE51F
:030AE600000AE61D
:030AE700000AE71B
:030AE800000AE819
:030AE900000AE917
:030AEA00000AEA15
:030AEB00000AEB13
:030AEC00000AEC11
:030AED00000AED0F
:030AEE00000AEE0D
:030AEF00000AEF0B
:030AF000000AF009
:030AF100000AF107
:030AF200000AF205
:030AF300000AF303
:030AF400000AF401
:030AF500000AF5FF
:030AF600000AF6FD
:030AF700000AF7FB
:030AF800000AF8F9
:030AF900000AF9F7
:030AFA00000AFAF5
:030AFB00000AFBF3
:030AFC00000AFCF1
:030AFD00000AFDEF
:030AFE00000AFEED
:030AFF00000AFFEB
:030B0000000B00E7
:030B0100000B01E5
:030B0200000B02E3
:030B0300000B03E1
:030B0400000B04DF
:030B0500000B05DD
:030B0600000B06DB
:030B0700000B07D9
:030B0800000B08D7
:030B0900000B09D5
:030B0A00000B0AD3
:030B0B00000B0BD1
:030B0C00000B0CCF
:030B0D00000B0DCD
:030B0E00000B0ECB
:030B0F00000B0FC9
:030B1000000B10C7
:030B1100000B11C5
:030B1200000B12C3
:030B1300000B13C1
:030B1400000B14BF
:030B1500000B15BD
:030B1600000B16BB
:030B1700000B17B9
:030B1800000B18B7
:030B1900000B19B5
:030B1A00000B1AB3
:030B1B00000B1BB1
:030B1C00000B1CAF
:030B1D00000B1DAD
:030B1E00000B1EAB
:030B1F00000B1FA9
:030B2000000B20A7
:030B2100000B21A5
:030B2200000B22A3
:030B2300000B23A1
:030B2400000B249F
:030B2500000B259D
:030B2600000B269B
:030B2700000B2799
:030B2800000B2897
:030B2900000B2995
:030B2A00000B2A93
:030B2B00000B2B91
:030B2C00000B2C8F
:030B2D00000B2D8D
:030B2E00000B2E8B
:030B2F00000B2F89
:030B3000000B3087
:030B3100000B3185
:030B3200000B3283
:030B3300000B3381
:030B3400000B347F
:030B3500000B357D
:030B3600000B367B
:030B3700000B3779
:030B3800000B3877
:030B3900000B3975
:030B3A00000B3A73
:030B3B00000B3B71
:030B3C00000B3C6F
:030B3D00000B3D6D
:030B3E00000B3E6B
:030B3F00000B3F69
:030B4000000B4067
:030B4100000B4165
:030B4200000B4263
:030B4300000B4361
:030B4400000B445F
:030B4500000B455D
:030B4600000B465B
:030B4700000B4759
:030B4800000B4857
:030B4900000B4955
:030B4A00000B4A53
:030B4B00000B4B51
:030B4C00000B4C4F
:030B4D00000B4D4D
:030B4E00000B4E4B
:030B4F00000B4F49
:030B5000000B5047
:030B5100000B5145
:030B5200000B5243
:030B5300000B5341
:030B5400000B543F
:030B5500000B553D
:030B5600000B563B
:030B5700000B5739
:030B5800000B5837
:030B5900000B5935
:030B5A00000B5A33
:030B5B00000B5B31
:030B5C00000B5C2F
:030B5D00000B5D2D
:030B5E00000B5E2B
:030B5F00000B5F29
:030B6000000B6027
:030B6100000B6125
:030B6200000B6223
:030B6300000B6321
:030B6400000B641F
:030B6500000B651D
:030B6600000B661B
:030B6700000B6719
:030B6800000B6817
:030B6900000B6915
:030B6A00000B6A13
:030B6B00000B6B11
:030B6C00000B6C0F
:030B6D00000B6D0D
:030B6E00000B6E0B
:030B6F00000B6F09
:030B7000000B7007
:030B7100000B7105
:030B7200000B7203
:030B7300000B7301
:030B7400000B74FF
:030B7500000B75FD
:030B7600000B76FB
:030B7700000B77F9
:030B7800000B78F7
:030B7900000B79F5
:030B7A00000B7AF3
:030B7B00000B7BF1
:030B7C00000B7CEF
:030B7D00000B7DED
:030B7E00000B7EEB
:030B7F00000B7FE9
:030B8000000B80E7
:030B8100000B81E5
:030B8200000B82E3
:030B8300000B83E1
:030B8400000B84DF
:030B8500000B85DD
:030B8600000B86DB
:030B8700000B87D9
:030B8800000B88D7
:030B8900000B89D5
:030B8A00000B8AD3
:030B8B00000B8BD1
:030B8C00000B8CCF
:030B8D00000B8DCD
:030B8E00000B8ECB
:030B8F00000B8FC9
:030B9000000B90C7
:030B9100000B91C5
:030B9200000B92C3
:030B9300000B93C1
:030B9400000B94BF
:030B9500000B95BD
:030B9600000B96BB
:030B9700000B97B9
:030B9800000B98B7
:030B9900000B99B5
:030B9A00000B9AB3
:030B9B00000B9BB1
:030B9C00000B9CAF
:030B9D00000B9DAD
:030B9E00000B9EAB
:030B9F00000B9FA9
:030BA000000BA0A7
:030BA100000BA1A5
:030BA200000BA2A3
:030BA300000BA3A1
:030BA400000BA49F
:030BA500000BA59D
:030BA600000BA69B
:030BA700000BA799
:030BA800000BA897
:030BA900000BA995
:030BAA00000BAA93
:030BAB00000BAB91
:030BAC00000BAC8F
:030BAD00000BAD8D
:030BAE00000BAE8B
:030BAF00000BAF89
:030BB000000BB087
:030BB100000BB185
:030BB200000BB283
:030BB300000BB381
:030BB400000BB47F
:030BB500000BB57D
:030BB600000BB67B
:030BB700000BB779
:030BB800000BB877
:030BB900000BB975
:030BBA00000BBA73
:030BBB00000BBB71
:030BBC00000BBC6F
:030BBD00000BBD6D
:030BBE00000BBE6B
:030BBF00000BBF69
:030BC000000BC067
:030BC100000BC165
:030BC200000BC263
:030BC300000BC361
:030BC400000BC45F
:030BC500000BC55D
:030BC600000BC65B
:030BC700000BC759
:030BC800000BC857
:030BC900000BC955
:030BCA00000BCA53
:030BCB00000BCB51
:030BCC00000BCC4F
:030BCD00000BCD4D
:030BCE00000BCE4B
:030BCF00000BCF49
:030BD000000BD047
:030BD100000BD145
:030BD200000BD243
:030BD300000BD341
:030BD400000BD43F
:030BD500000BD53D
:030BD600000BD63B
:030BD700000BD739
:030BD800000BD837
:030BD900000BD935
:030BDA00000BDA33
:030BDB00000BDB31
:030BDC00000BDC2F
:030BDD00000BDD2D
:030BDE00000BDE2B
:030BDF00000BDF29
:030BE000000BE027
:030BE100000BE125
:030BE200000BE223
:030BE300000BE321
:030BE400000BE41F
:030BE500000BE51D
:030BE600000BE61B
:030BE700000BE719
:030BE800000BE817
:030BE900000BE915
:030BEA00000BEA13
:030BEB00000BEB11
:030BEC00000BEC0F
:030BED00000BED0D
:030BEE00000BEE0B
:030BEF00000BEF09
:030BF000000BF007
:030BF100000BF105
:030BF200000BF203
:030BF300000BF301
:030BF400000BF4FF
:030BF500000BF5FD
:030BF600000BF6FB
:030BF700000BF7F9
:030BF800000BF8F7
:030BF900000BF9F5
:030BFA00000BFAF3
:030BFB00000BFBF1
:030BFC00000BFCEF
:030BFD00000BFDED
:030BFE00000BFEEB
:030BFF00000BFFE9
:030C0000000C00E5
:030C0100000C01E3
:030C0200000C02E1
:030C0300000C03DF
:030C0400000C04DD
:030C0500000C05DB
:030C0600000C06D9
:030C0700000C07D7
:030C0800000C08D5
:030C0900000C09D3
:030C0A00000C0AD1
:030C0B00000C0BCF
:030C0C00000C0CCD
:030C0D00000C0DCB
:030C0E00000C0EC9
:030C0F00000C0FC7
:030C1000000C10C5
:030C1100000C11C3
:030C1200000C12C1
:030C1300000C13BF
:030C1400000C14BD
:030C1500000C15BB
:030C1600000C16B9
:030C1700000C17B7
:030C1800000C18B5
:030C1900000C19B3
:030C1A00000C1AB1
:030C1B00000C1BAF
:030C1C00000C1CAD
:030C1D00000C1DAB
:030C1E00000C1EA9
:030C1F00000C1FA7
:030C2000000C20A5
:030C2100000C21A3
:030C2200000C22A1
:030C2300000C239F
:030C2400000C249D
:030C2500000C259B
:030C2600000C2699
:030C2700000C2797
:030C2800000C2895
:030C2900000C2993
:030C2A00000C2A91
:030C2B00000C2B8F
:030C2C00000C2C8D
:030C2D00000C2D8B
:030C2E00000C2E89
:030C2F00000C2F87
:030C3000000C3085
:030C3100000C3183
:030C3200000C3281
:030C3300000C337F
:030C3400000C347D
:030C3500000C357B
:030C3600000C3679
:030C3700000C3777
:030C3800000C3875
:030C3900000C3973
:030C3A00000C3A71
:030C3B00000C3B6F
:030C3C00000C3C6D
:030C3D00000C3D6B
:030C3E00000C3E69
:030C3F00000C3F67
:030C4000000C4065
:030C4100000C4163
:030C4200000C4261
:030C4300000C435F
:030C4400000C445D
:030C4500000C455B
:030C4600000C4659
:030C4700000C4757
:030C4800000C4855
:030C4900000C4953
:030C4A00000C4A51
:030C4B00000C4B4F
:030C4C00000C4C4D
:030C4D00000C4D4B
:030C4E00000C4E49
:030C4F00000C4F47
:030C5000000C5045
:030C5100000C5143
:030C5200000C5241
:030C5300000C533F
:030C5400000C543D
:030C5500000C553B
:030C5600000C5639
:030C5700000C5737
:030C5800000C5835
:030C5900000C5933
:030C5A00000C5A31
:030C5B00000C5B2F
:030C5C00000C5C2D
:030C5D00000C5D2B
:030C5E00000C5E29
:030C5F00000C5F27
:030C6000000C6025
:030C6100000C6123
:030C6200000C6221
:030C6300000C631F
:030C6400000C641D
:030C6500000C651B
:030C6600000C6619
:030C6700000C6717
:030C6800000C6815
:030C6900000C6913
:030C6A00000C6A11
:030C6B00000C6B0F
:030C6C00000C6C0D
:030C6D00000C6D0B
:030C6E00000C6E09
:030C6F00000C6F07
:030C7000000C7005
:030C7100000C7103
:030C7200000C7201
:030C7300000C73FF
:030C7400000C74FD
:030C7500000C75FB
:030C7600000C76F9
:030C7700000C77F7
:030C7800000C78F5
:030C7900000C79F3
:030C7A00000C7AF1
:030C7B00000C7BEF
:030C7C00000C7CED
:030C7D00000C7DEB
:030C7E00000C7EE9
:030C7F00000C7FE7
:030C8000000C80E5
:030C8100000C81E3
:030C8200000C82E1
:030C8300000C83DF
:030C8400000C84DD
:030C8500000C85DB
:030C8600000C86D9
:030C8700000C87D7
:030C8800000C88D5
:030C8900000C89D3
:030C8A00000C8AD1
:030C8B00000C8BCF
:030C8C00000C8CCD
:030C8D00000C8DCB
:030C8E00000C8EC9
:030C8F00000C8FC7
:030C9000000C90C5
:030C9100000C91C3
:030C9200000C92C1
:030C9300000C93BF
:030C9400000C94BD
:030C9500000C95BB
:030C9600000C96B9
:030C9700000C97B7
:030C9800000C98B5
:030C9900000C99B3
:030C9A00000C9AB1
:030C9B00000C9BAF
:030C9C00000C9CAD
:030C9D00000C9DAB
:030C9E00000C9EA9
:030C9F00000C9FA7
:030CA000000CA0A5
:030CA100000CA1A3
:030CA200000CA2A1
:030CA300000CA39F
:030CA400000CA49D
:030CA500000CA59B
:030CA600000CA699
:030CA700000CA797
:030CA800000CA895
:030CA900000CA993
:030CAA00000CAA91
:030CAB00000CAB8F
:030CAC00000CAC8D
:030CAD00000CAD8B
:030CAE00000CAE89
:030CAF00000CAF87
:030CB000000CB085
:030CB100000CB183
:030CB200000CB281
:030CB300000CB37F
:030CB400000CB47D
:030CB500000CB57B
:030CB600000CB679
:030CB700000CB777
:030CB800000CB875
:030CB900000CB973
:030CBA00000CBA71
:030CBB00000CBB6F
:030CBC00000CBC6D
:030CBD00000CBD6B
:030CBE00000CBE69
:030CBF00000CBF67
:030CC000000CC065
:030CC100000CC163
:030CC200000CC261
:030CC300000CC35F
:030CC400000CC45D
:030CC500000CC55B
:030CC600000CC659
:030CC700000CC757
:030CC800000CC855
:030CC900000CC953
:030CCA00000CCA51
:030CCB00000CCB4F
:030CCC00000CCC4D
:030CCD00000CCD4B
:030CCE00000CCE49
:030CCF00000CCF47
:030CD000000CD045
:030CD100000CD143
:030CD200000CD241
:030CD300000CD33F
:030CD400000CD43D
:030CD500000CD53B
:030CD600000CD639
:030CD700000CD737
:030CD800000CD835
:030CD900000CD933
:030CDA00000CDA31
:030CDB00000CDB2F
:030CDC00000CDC2D
:030CDD00000CDD2B
:030CDE00000CDE29
:030CDF00000CDF27
:030CE000000CE025
:030CE100000CE123
:030CE200000CE221
:030CE300000CE31F
:030CE400000CE41D
:030CE500000CE51B
:030CE600000CE619
:030CE700000CE717
:030CE800000CE815
:030CE900000CE913
:030CEA00000CEA11
:030CEB00000CEB0F
:030CEC00000CEC0D
:030CED00000CED0B
:030CEE00000CEE09
:030CEF00000CEF07
:030CF000000CF005
:030CF100000CF103
:030CF200000CF201
:030CF300000CF3FF
:030CF400000CF4FD
:030CF500000CF5FB
:030CF600000CF6F9
:030CF700000CF7F7
:030CF800000CF8F5
:030CF900000CF9F3
:030CFA00000CFAF1
:030CFB00000CFBEF
:030CFC00000CFCED
:030CFD00000CFDEB
:030CFE00000CFEE9
:030CFF00000CFFE7
:030D0000000D00E3
:030D0100000D01E1
:030D0200000D02DF
:030D0300000D03DD
:030D0400000D04DB
:030D0500000D05D9
:030D0600000D06D7
:030D0700000D07D5
:030D0800000D08D3
:030D0900000D09D1
:030D0A00000D0ACF
:030D0B00000D0BCD
:030D0C00000D0CCB
:030D0D00000D0DC9
:030D0E00000D0EC7
:030D0F00000D0FC5
:030D1000000D10C3
:030D1100000D11C1
:030D1200000D12BF
:030D1300000D13BD
:030D1400000D14BB
:030D1500000D15B9
:030D1600000D16B7
:030D1700000D17B5
:030D1800000D18B3
:030D1900000D19B1
:030D1A00000D1AAF
:030D1B00000D1BAD
:030D1C00000D1CAB
:030D1D00000D1DA9
:030D1E00000D1EA7
:030D1F00000D1FA5
:030D2000000D20A3
:030D2100000D21A1
:030D2200000D229F
:030D2300000D239D
:030D2400000D249B
:030D2500000D2599
:030D2600000D2697
:030D2700000D2795
:030D2800000D2893
:030D2900000D2991
:030D2A00000D2A8F
:030D2B00000D2B8D
:030D2C00000D2C8B
:030D2D00000D2D89
:030D2E00000D2E87
:030D2F00000D2F85
:030D3000000D3083
:030D3100000D3181
:030D3200000D327F
:030D3300000D337D
:030D3400000D347B
:030D3500000D3579
:030D3600000D3677
:030D3700000D3775
:030D3800000D3873
:030D3900000D3971
:030D3A00000D3A6F
:030D3B00000D3B6D
:030D3C00000D3C6B
:030D3D00000D3D69
:030D3E00000D3E67
:030D3F00000D3F65
:030D4000000D4063
:030D4100000D4161
:030D4200000D425F
:030D4300000D435D
:030D4400000D445B
:030D4500000D4559
:030D4600000D4657
:030D4700000D4755
:030D4800000D4853
:030D4900000D4951
:030D4A00000D4A4F
:030D4B00000D4B4D
:030D4C00000D4C4B
:030D4D00000D4D49
:030D4E00000D4E47
:030D4F00000D4F45
:030D5000000D5043
:030D5100000D5141
:030D5200000D523F
:030D5300000D533D
:030D5400000D543B
:030D5500000D5539
:030D5600000D5637
:030D5700000D5735
:030D5800000D5833
:030D5900000D5931
:030D5A00000D5A2F
:030D5B00000D5B2D
:030D5C00000D5C2B
:030D5D00000D5D29
:030D5E00000D5E27
:030D5F00000D5F25
:030D6000000D6023
:030D6100000D6121
:030D6200000D621F
:030D6300000D631D
:030D6400000D641B
:030D6500000D6519
:030D6600000D6617
:030D6700000D6715
:030D6800000D6813
:030D6900000D6911
:030D6A00000D6A0F
:030D6B00000D6B0D
:030D6C00000D6C0B
:030D6D00000D6D09
:030D6E00000D6E07
:030D6F00000D6F05
:030D7000000D7003
:030D7100000D7101
:030D7200000D72FF
:030D7300000D73FD
:030D7400000D74FB
:030D7500000D75F9
:030D7600000D76F7
:030D7700000D77F5
:030D7800000D78F3
:030D7900000D79F1
:030D7A00000D7AEF
:030D7B00000D7BED
:030D7C00000D7CEB
:030D7D00000D7DE9
:030D7E00000D7EE7
:030D7F00000D7FE5
:030D8000000D80E3
:030D8100000D81E1
:030D8200000D82DF
:030D8300000D83DD
:030D8400000D84DB
:030D8500000D85D9
:030D8600000D86D7
:030D8700000D87D5
:030D8800000D88D3
:030D8900000D89D1
:030D8A00000D8ACF
:030D8B00000D8BCD
:030D8C00000D8CCB
:030D8D00000D8DC9
:030D8E00000D8EC7
:030D8F00000D8FC5
:030D9000000D90C3
:030D9100000D91C1
:030D9200000D92BF
:030D9300000D93BD
:030D9400000D94BB
:030D9500000D95B9
:030D9600000D96B7
:030D9700000D97B5
:030D9800000D98B3
:030D9900000D99B1
:030D9A00000D9AAF
:030D9B00000D9BAD
:030D9C00000D9CAB
:030D9D00000D9DA9
:030D9E00000D9EA7
:030D9F00000D9FA5
:030DA000000DA0A3
:030DA100000DA1A1
:030DA200000DA29F
:030DA300000DA39D
:030DA400000DA49B
:030DA500000DA599
:030DA600000DA697
:030DA700000DA795
:030DA800000DA893
:030DA900000DA991
:030DAA00000DAA8F
:030DAB00000DAB8D
:030DAC00000DAC8B
:030DAD00000DAD89
:030DAE00000DAE87
:030DAF00000DAF85
:030DB000000DB083
:030DB100000DB181
:030DB200000DB27F
:030DB300000DB37D
:030DB400000DB47B
:030DB500000DB579
:030DB600000DB677
:030DB700000DB775
:030DB800000DB873
:030DB900000DB971
:030DBA00000DBA6F
:030DBB00000DBB6D
:030DBC00000DBC6B
:030DBD00000DBD69
:030DBE00000DBE67
:030DBF00000DBF65
:030DC000000DC063
:030DC100000DC161
:030DC200000DC25F
:030DC300000DC35D
:030DC400000DC45B
:030DC500000DC559
:030DC600000DC657
:030DC700000DC755
:030DC800000DC853
:030DC900000DC951
:030DCA00000DCA4F
:030DCB00000DCB4D
:030DCC00000DCC4B
:030DCD00000DCD49
:030DCE00000DCE47
:030DCF00000DCF45
:030DD000000DD043
:030DD100000DD141
:030DD200000DD23F
:030DD300000DD33D
:030DD400000DD43B
:030DD500000DD539
:030DD600000DD637
:030DD700000DD735
:030DD800000DD833
:030DD900000DD931
:030DDA00000DDA2F
:030DDB00000DDB2D
:030DDC00000DDC2B
:030DDD00000DDD29
:030DDE00000DDE27
:030DDF00000DDF25
:030DE000000DE023
:030DE100000DE121
:030DE200000DE21F
